:020000040800F2
:100000000000022001040008E5030008E7030008DF
:10001000E9030008EB030008ED03000800000000FE
:10002000000000000000000000000000EF030008D6
:10003000F103000800000000F3030008F5030008C6
:10004000510400085104000851040008510400083C
:10005000510400085104000851040008510400082C
:10006000510400085104000851040008510400081C
:10007000510400085104000851040008510400080C
:100080005104000851040008510400080000000059
:100090000000000000000000000000005104000803
:1000A00051040008510400085104000851040008DC
:1000B00051040008510400085104000851040008CC
:1000C00051040008510400085104000851040008BC
:1000D0005104000851040008510400080000000009
:1000E00051040008510400085104000800000000F9
:1000F00000000000000000000000000051040008A3
:1001000000000000510400085104000851040008D8
:1001100000000000000000000000000000000000DF
:10012000510400085104000851040008510400085B
:100130005104000800000000000000000000000062
:100140000000000000000000000000005104000852
:10015000510400085104000851040008510400082B
:1001600051040008510400080000000000000000D5
:10017000000000000000000000000000000000007F
:100180000000000051040008000000000000000012
:080190005104000851040008AD
:1001980053B94AB9002908BF00281CBF4FF0FF31E6
:1001A8004FF0FF3000F00CB8ADF1080C6DE904CE4B
:1001B80000F014FEDDF804E0DDE9022304B0704726
:1001C800704700BF0348044B834202D0034B03B17E
:1001D80018477047100000201000002000000000A1
:1001E8000548064B1B1AD90F01EBA301491002D091
:1001F800034B03B11847704710000020100000207F
:100208000000000010B5064C237843B9FFF7DAFF69
:10021800044B13B10448AFF300800123237010BDD1
:1002280010000020000000006412000808B5054B0B
:100238001BB105490548AFF30080BDE80840FFF74A
:10024800CFBF00BF000000001400002064120008A7
:1002580010B588B000220392049205920692079284
:100268000092174B196B41F080011963196B01F06B
:100278008001009100990192196B41F00401196302
:10028800196B01F00401019101990292196B41F077
:10029800010119631B6B03F001030293029B094CD4
:1002A8000321204600F08AFA0323039301230493D1
:1002B8000593069303A9204600F098F908B010BDED
:1002C800003802400008024072B6FEE700B595B05B
:1002D8003022002108A800F0DFFE002303930493D6
:1002E80005930693079301931E4A116C41F08051C0
:1002F8001164126C02F080520192019A02931A4A18
:10030800116841F440411160126802F440420292BF
:10031800029A0222089201210B9110210C910E924F
:100328000F930823109364231193129204231393B9
:1003380008A800F053FA88B90F2303930223049303
:10034800002305934FF4805206920793032103A8D4
:1003580000F094FC20B915B05DF804FBFFF7B4FF7A
:10036800FFF7B2FF003802400070004008B500F007
:1003780093F8FFF7ABFFFFF76BFF094C012120460D
:1003880000F022FA4FF47A7000F0B2F80221204609
:1003980000F01AFA4FF47A7000F0AAF8EDE700BFFF
:1003A8000008024082B0002100910B4B5A6C42F4C5
:1003B80080425A645A6C02F480420092009A019179
:1003C8001A6C42F080521A641B6C03F0805301933C
:1003D800019B02B0704700BF00380240FEE7FEE70D
:1003E800FEE7FEE7FEE770477047704708B500F084
:1003F8006DF808BD70470000DFF834D00D480E498D
:100408000E4A002302E0D458C4500433C4188C4266
:10041800F9D30B4A0B4C002301E013600432A242CB
:10042800FBD3FFF7E7FF00F089FEFFF79FFF704758
:10043800000002200000002010000020A012000888
:1004480010000020C8010020FEE7000010B5044697
:100458000E4B1A784FF47A73B3FBF2F30C4A106818
:10046800B0FBF3F000F0AEF868B90F2C01D9012009
:100478000AE0002221464FF0FF3000F093F8054BC8
:100488001C60002000E0012010BD00BF0400002017
:10049800000000200800002008B50B4B1A6842F441
:1004A80000721A601A6842F480621A601A6842F48C
:1004B80080721A60032000F063F80F20FFF7C6FF70
:1004C800FFF770FF002008BD003C0240034A116896
:1004D800034B1B780B441360704700BF2C000020AF
:1004E80004000020014B1868704700BF2C00002052
:1004F80038B50446FFF7F6FF0546B4F1FF3F02D0D2
:10050800044B1B781C44FFF7EDFF401BA042FAD3B5
:1005180038BD00BF04000020002808DB0901C9B26B
:1005280000F1604000F5614080F80013704700F06A
:100538000F000901C9B2014B1954704714ED00E0CE
:1005480000B500F00700C0F1070CBCF1040F28BF8C
:100558004FF0040C031D062B0FD9C31E4FF0FF3EAE
:100568000EFA0CF021EA000199400EFA03FE22EA85
:100578000E0241EA02005DF804FB0023EEE70000EA
:10058800074AD36823F4E0631B041B0C000200F441
:10059800E060034343F0BF6343F40033D360704724
:1005A80000ED00E010B50446054BD868C0F3022002
:1005B800FFF7C6FF01462046FFF7AEFF10BD00BF9C
:1005C80000ED00E00138B0F1807F0BD24FF0E0235E
:1005D8005861054AF02182F823100020986107220B
:1005E8001A6170470120704700ED00E000230F2BCF
:1005F80000F2DA8030B583B068E085684FEA430ED0
:10060800032404FA0EF425EA0405CC6804FA0EF46F
:100618002C438460446824EA02044A68C2F3001246
:100628009A40224342605FE0DC08083450F82420F6
:1006380003F00705AD004FF00F0E0EFA05FE22EA93
:100648000E0E0A69AA4042EA0E0240F824205FE032
:10065800042200E0002202FA0EF22A430234534D2B
:1006680045F82420524A94686FEA0C0224EA0C05E3
:10067800D1F804E01EF4801F01D04CEA04054C4C6C
:10068800A560E46802EA0405D1F804E01EF4001F3E
:1006980001D04CEA0405464CE560646802EA0405AA
:1006A800D1F804E01EF4003F01D04CEA0405404CA8
:1006B8006560246822404D6815F4803F01D04CEAFB
:1006C80004023B4C226001330F2B6BD801229A4065
:1006D8000C6804EA020C32EA0404F4D14C6804F011
:1006E8000304013C012C88D94A6802F00302032A5A
:1006F80009D0C4685D000322AA4024EA02048A687B
:10070800AA402243C2604A6802F00302022A8BD040
:1007180004684FEA430E032202FA0EF224EA0204A6
:100728004A6802F0030202FA0EF2224302604A68A3
:1007380012F4403FC7D0002201921E4A546C44F480
:1007480080445464526C02F480420192019A9C08DD
:10075800A51C164A52F8255003F0030E4FEA8E0ED8
:100768000F2202FA0EF225EA0205134A90423FF4DC
:1007780071AF02F5806290420ED002F5806290421D
:100788000CD002F5806290420AD002F58062904255
:100798003FF45EAF07225EE701225CE702225AE7D8
:1007A800032258E703B030BD704700BF003801404E
:1007B800003C014000380240000002400AB181615B
:1007C8007047090481617047436901EA030221EA1D
:1007D800030141EA0241816170470000002800F0EE
:1007E800E08170B582B00446036813F0010F3BD076
:1007F8009F4B9B6803F00C03042B2CD09C4B9B68ED
:1008080003F00C03082B21D06368B3F5803F4FD069
:10081800B3F5A02F52D0964B1A6822F480321A6092
:100828001A6822F480221A606368002B50D0FFF700
:1008380059FE05468E4B1B6813F4003F14D1FFF791
:1008480051FE401B6428F5D90320B1E1884B5B6851
:1008580013F4800FD8D0864B1B6813F4003F03D0E5
:100868006368002B00F09F81236813F0020F54D0B7
:100878007F4B9B6813F00C0F3ED07D4B9B6803F0B9
:100888000C03082B33D0E368002B68D0794B012286
:100898001A60FFF727FE0546754B1B6813F0020F19
:1008A80054D1FFF71FFE401B0228F5D903207FE132
:1008B8006F4A136843F480331360B5E76C4B1A68CA
:1008C80042F480221A601A6842F480321A60ABE758
:1008D800FFF708FE0546664B1B6813F4003FC3D0BC
:1008E800FFF700FE401B6428F5D9032060E1604B48
:1008F8005B6813F4800FC6D15D4B1B6813F0020FC1
:1009080003D0E368012B40F05081594A136823F063
:10091800F803216943EAC1031360236813F0080F41
:1009280042D063696BB3534B0122C3F8802EFFF7A3
:10093800D9FD05464E4B5B6F13F0020F34D1FFF71C
:10094800D1FD401B0228F5D9032031E1484A13683C
:1009580023F0F803216943EAC1031360DDE7454B3F
:1009680000221A60FFF7BEFD0546414B1B6813F0D5
:10097800020FD2D0FFF7B6FD401B0228F5D903209D
:1009880016E13C4B0022C3F8802EFFF7ABFD05466D
:10099800374B5B6F13F0020F06D0FFF7A3FD401B28
:1009A8000228F5D9032003E1236813F0040F77D058
:1009B8002F4B1B6C13F0805F33D1002301932C4B1A
:1009C8001A6C42F080521A641B6C03F08053019336
:1009D800019B0125284B1B6813F4807F23D0A36853
:1009E800012B34D0052B38D0214B1A6F22F001028D
:1009F8001A671A6F22F004021A67A368002B3DD009
:100A0800FFF770FD06461A4B1B6F13F0020F46D115
:100A1800FFF768FD801B41F288339842F3D9032021
:100A2800C6E00025D6E7144A136843F480731360C0
:100A3800FFF758FD0646104B1B6813F4807FCED194
:100A4800FFF750FD801B0228F5D90320B0E0084AC3
:100A5800136F43F001031367CFE7054B1A6F42F09A
:100A680004021A671A6F42F001021A67C5E700BF4D
:100A7800003802400000474200700040FFF732FD96
:100A88000646524B1B6F13F0020F08D0FFF72AFDE2
:100A9800801B41F288339842F3D9032088E0EDB9EE
:100AA800A369002B00F08380484A926802F00C0288
:100AB800082A51D0022B17D0454B00221A66FFF79F
:100AC80011FD0446414B1B6813F0007F42D0FFF72D
:100AD80009FD001B0228F5D9032069E03B4A136C85
:100AE80023F080531364DBE7394B00221A66FFF7C3
:100AF800F9FC0546354B1B6813F0007F06D0FFF75D
:100B0800F1FC401B0228F5D9032051E0E369226A71
:100B18001343626A43EA8213A26A5208013A43EA1B
:100B28000243E26A43EA0263284A5360284B0122DF
:100B38001A66FFF7D7FC0446244B1B6813F0007FA6
:100B480006D1FFF7CFFC001B0228F5D903202FE0C0
:100B580000202DE000202BE0012B2BD01B4B5B68E5
:100B680003F48001E269914226D103F03F02216A31
:100B78008A4223D1616A47F6C0721A40B2EB811FDC
:100B88001ED103F44031A26A5208013AB1EB024F78
:100B980018D103F07063E26AB3EB026F14D100203E
:100BA80006E001207047012002E0012000E000205B
:100BB80002B070BD0120FBE70120F9E70120F7E74B
:100BC8000120F5E70120F3E70120F1E700380240B2
:100BD8000000474208B5264B9B6803F00C03042B22
:100BE80041D0082B41D1224B5A6802F03F025B6882
:100BF80013F4800F12D01E4B5968C1F388111D4899
:100C08000023A1FB0001FFF7C3FA194B5B68C3F38C
:100C1800014301335B00B0FBF3F027E0144B586845
:100C2800C0F388104FEA401CBCEB000C6EEB0E0EB4
:100C38004FEA8E1343EA9C634FEA8C11B1EB0C0127
:100C480063EB0E03DB0043EA5173C90011EB000CA0
:100C580043F10003990200234FEA8C2041EA9C519A
:100C6800FFF796FAD1E7034800E0034808BD00BF44
:100C78000038024040787D010024F400002800F08C
:100C88009B8070B50D4604464F4B1B6803F0070365
:100C98008B4208D2CBB24C4A1370136803F0070397
:100CA8008B4240F08B80236813F0020F17D013F0AB
:100CB800040F04D0454A936843F4E05393602368D3
:100CC80013F0080F04D0414A936843F460439360DB
:100CD8003E4A936823F0F003A1680B4393602368AE
:100CE80013F0010F32D06368012B21D09A1E012A1C
:100CF80025D9364A126812F0020F61D033498A6842
:100D080022F0030213438B60FFF7ECFB06462F4BE0
:100D18009B6803F00C036268B3EB820F16D0FFF7F1
:100D2800E1FB801B41F288339842F0D9032042E06E
:100D3800264A126812F4003FE0D101203BE0234A22
:100D4800126812F0007FD9D1012034E01E4B1B68D5
:100D580003F00703AB4207D9EAB21B4B1A701B68B2
:100D680003F00703AB422DD1236813F0040F06D01C
:100D7800164A936823F4E053E1680B4393602368B1
:100D880013F0080F07D0114A936823F460432169D0
:100D980043EAC1039360FFF71DFF0C4B9B68C3F345
:100DA80003130B4AD35CD8400A4B18600A4B1868E7
:100DB800FFF74CFB002070BD012070470120FAE7C7
:100DC8000120F8E70120F6E7003C02400038024025
:100DD8007C12000800000020080000202DE9F047E0
:100DE800089D0C46002B4ED194468C458646B2FA97
:100DF80082F262D94AB1C2F12003914020FA03F38A
:100E08000CFA02FC194300FA02FE4FEA1C471FFACB
:100E18008CF6B1FBF7F44FEA1E4307FB141143EAC3
:100E2800014304FB06F199420AD91CEB030304F1C0
:100E3800FF3080F01281994240F20F81023C6344F6
:100E4800591A1FFA8EF3B1FBF7F007FB101143EAAA
:100E5800014300FB06F69E420AD91CEB030300F18E
:100E6800FF3180F0FC809E4240F2F98063440238F2
:100E78009B1B40EA044000211DB1D3400022C5E974
:100E88000032BDE8F0878B4205D90DB1C5E90001F4
:100E980000210846F5E7B3FA83F1002946D1A342B9
:100EA80002D39042C0F0F080861A64EB030301205D
:100EB800002DE6D0C5E90063E3E7002A40F0908002
:100EC800A1EB0C044FEA1C481FFA8CF70121B4FB74
:100ED800F8F64FEA1E4308FB164443EA044307FBAF
:100EE80006F0984208D91CEB030306F1FF3402D23E
:100EF800984200F2CD8026461C1A1FFA8EF3B4FBE6
:100F0800F8F008FB104443EA044300FB07F79F424C
:100F180008D91CEB030300F1FF3402D29F4200F210
:100F2800B0802046DB1B40EA0640A5E7C1F1200659
:100F38008B4022FA06F71F4320FA06FC04FA01F355
:100F480043EA0C03F44000FA01F8380C4FEA13495D
:100F5800B4FBF0FE1FFA87FC00FB1E4449EA044478
:100F68000EFB0CF9A14502FA01F20AD93C190EF15F
:100F7800FF3A80F08480A14540F28180AEF1020EF4
:100F88003C44A4EB09041FFA83F9B4FBF0F300FB1B
:100F9800134449EA044403FB0CFCA44507D93C1953
:100FA80003F1FF3067D2A44565D9023B3C4443EACC
:100FB8000E40A0FB0293A4EB0C049C42CE469C4638
:100FC80051D34ED055B1B8EB0E0364EB0C0404FAC0
:100FD80006F6CB401E43CC40C5E90064002150E72B
:100FE800C2F1200320FA03F10CFA02FC24FA03F3FD
:100FF80094400C434FEA1C4800FA02FE1FFA8CF793
:10100800B3FBF8F008FB1031230C43EA014300FB63
:1010180007F1994208D91CEB030300F1FF362CD2E3
:1010280099422AD9023863445B1AA4B2B3FBF8F197
:1010380008FB113344EA034401FB07F3A34208D930
:101048001CEB040401F1FF3613D2A34211D9023973
:101058006444E41A41EA004139E70446F0E60846E8
:1010680006E7C845AED2B9EB020E63EB070C0138B0
:10107800A8E73146EDE7034699E73046D4E7D64678
:101088007FE7634402384DE70646234608460FE7E4
:10109800023E634430E700BF830730B547D0541E93
:1010A800002A3ED0CAB2034601E0013C39D303F816
:1010B800012B9D07F9D1032C2CD9CDB205EB0525C1
:1010C8000F2C05EB054535D9A4F1100222F00F0CC1
:1010D80003F1100EE6444FEA121C1A4615605560DB
:1010E8009560D56010327245F8D10CF1010214F008
:1010F8000C0F03EB021204F00F0C13D0ACF1040335
:1011080023F003030433134442F8045B9A42FBD1EF
:101118000CF003042CB1C9B21C4403F8011B9C4217
:10112800FBD130BD64461346002CF4D1F9E70346E1
:101138001446C0E71A46A446E0E700BF70B50F4B57
:101148000F4DAB42A3EB050607D0B610002455F8A7
:10115800043B01349847A642F9D800F07FF8094DBE
:10116800094B5E1BAB424FEAA60606D0002455F891
:10117800043B01349847A642F9D870BD9412000880
:1011880094120008941200089C120008704700BFCF
:10119800704700BF024B13B1024800F005B8704712
:1011A80000000000BD110008002301461A46184639
:1011B80000F014B838B5074D074C2C1BA41005D007
:1011C800013C55F8043D9847002CF9D1BDE838405A
:1011D80000F04AB8A01200089C1200082DE9F84354
:1011E8001B4D0646286898460F469146FFF7CEFFE6
:1011F800184B1C681CB3286865681F2D22DC4EB983
:101208006B1C0235636044F82570FFF7C1FF0020AE
:10121800BDE8F88304EB85010123C1F88890D4F870
:101228008821AB401A43022EC4F88821C1F80881EE
:10123800E6D1D4F88C211A43C4F88C21E0E7064C97
:101248001C60D8E7FFF7A4FF4FF0FF30E0E700BFCE
:101258000C0000203400002038000020F8B500BF42
:10126800F8BC08BC9E467047F8B500BFF8BC08BC7F
:041278009E467047D7
:10127C00000000000000000001020304060708093A
:08128C0058FBFF7F0100000088
:081294009D110008350200085D
:04129C000D02000837
:1012A0000024F400010000001000000030000020C5
:0400000508000401EA
:00000001FF
